:040000000C946E00EE
:100004000C9400000C9400000C9400000C9400006C
:100014000C9400000C9400000C9400000C9400005C
:100024000C9400000C9400000C9400000C9400004C
:100034000C9400000C9400000C9400000C9400003C
:100044000C9400000C9400000C9400000C9400002C
:100054001027E80364000A000100001000011000EA
:10006400010000000000140000000000256400737B
:10007400696E006578700073717274002829006CD1
:100084006F670074616E00636F73000080C00100CD
:100094002D4E414E00494E4600000A000400660001
:1000A4000400600273000400640277000500680223
:1000B4007B0003006D0280000400700283000400D2
:1000C40074028700040078028B0002008E02900004
:1000D4000100950292000000F894EE27ECBBF1E0D9
:1000E400FBBFEBBFE5BF8DE0A2E0BB27ED938A9594
:1000F400E9F780E098E0A0E6ED930197E9F7EEE9EF
:10010400F0E085919591009761F0A591B5910590E6
:100114001590BF01F00105900D920197E1F7FB01E5
:10012400F0CFEFE5EDBFE8E0EEBFC0E6D2E00C941F
:100134009B00EFEFEABBE0E0EBBBE7BBE8BBE4BB53
:10014400E5BBE1BBE2BBE3BFE2BFECBFEFBDEEBD8D
:10015400EDBDECBDE7BDE6BDEBBDEABDE9BDE8BD67
:10016400E2BDE5BDE4BDE3BDE9BFE5BFE4BFEAB977
:10017400E0E8E8B9E0E0E0BFE6B9EDB9E6BFA0E148
:100184000E942103EFEFE4BBE0EFE7BBEFEFEABB34
:10019400A7D12F01E2E0F0E0EA15FB0531F40E945B
:1001A40082072F010E946E0A2F01A2E3B0E00E9491
:1001B40063080E9482073F01E2E0F0E0EA15FB05D4
:1001C40031F40E9482073F010E946E0A3F01A2E3BC
:1001D400B0E00E946308E5E0F0E0EA15FB0509F0F1
:1001E400B0C0E1E0EA93A1E00E94D102E4E0F0E0D3
:1001F400EC15FD0541F40E948607F301E40DF51D9D
:100204000E947A0A90C0E3E0F0E0EC15FD0541F4A9
:100214000E948607F201E619F7090E947A0A83C050
:10022400E2E0F0E0EC15FD0549F40E948607F301D5
:10023400D2010E94870A0E947A0A75C0E1E0F0E0C8
:10024400EC15FD0561F40E9486070E948F07DF010B
:10025400CB01F3010E9495070E94CE0964C0EAE035
:10026400F0E0EC15FD0549F40E9486070E948F0713
:10027400DF01CB010E94330A56C0E9E0F0E0EC153F
:10028400FD0571F40E9486070E948F070E94CE0A22
:10029400F3010E949507DF01CB010E94650643C06C
:1002A400EBE0F0E0EC15FD0539F40E9486070E94AE
:1002B4008F070E949A0737C0ECE0F0E0EC15FD05CB
:1002C40049F40E9486070E948F07DF01CB010E9438
:1002D400B50629C0EDE0F0E0EC15FD0549F40E94F7
:1002E40086070E948F07DF01CB010E9439071BC0DC
:1002F400E8E0F0E0EC15FD0549F40E9486070E9451
:100304008F07DF01CB010E9446070DC0E7E0F0E054
:10031400EC15FD0571F40E9486070E948F07DF012A
:10032400CB010E94BD050E94CE0A84E00E94C40451
:100334002896AEE7B2E072D1A8ECB0E00E94630860
:100344004ACF49CFFFCFE4E1F0E04F01EFEFE8BB44
:10035400E5BBC4980E949E07B09903C0E7E0F0E0B3
:100364004F01B19903C0E4E0F0E04F01B29903C03A
:10037400E1E0F0E04F01B39903C022D1AA24BB24E9
:10038400989907C0A0E6B2E049D1ECE0F0E00E9401
:10039400A207C49AC5980E949E07B09903C0E8E0DA
:1003A400F0E04F01B19903C0E5E0F0E04F01B299EC
:1003B40003C0E2E0F0E04F01B39902C0882499241D
:1003C400989907C0A4E6B2E029D1EBE0F0E00E94DE
:1003D400A207C59AC6980E949E07B09903C0E9E097
:1003E400F0E04F01B19903C0E6E0F0E04F01B299AB
:1003F40003C0E3E0F0E04F01B39907C0A3E2EED0FD
:10040400E5E0F0E05F010E94AB07989907C0A8E619
:10041400B2E004D1EAE0F0E00E94A207C69AC798CD
:100424000E949E07B09906C0AFE2D8D0E1E0F0E0A8
:100434000E94A207B19906C0AAE2D0D0E2E0F0E09F
:100444000E94A207B29906C0ADE2C8D0E3E0F0E092
:100454000E94A207B39906C0ABE2C0D0E4E0F0E08A
:100464000E94A207989906C0AEE5B8D0E9E0F0E092
:100474000E94A207C79AA9980E949E07B09907C034
:10048400ADE6B2E0CBD0E6E0F0E00E94A207B1997D
:100494000AC0ADE2A3D0E2E0F0E05F010E94AB0746
:1004A400E2E0F0E05F01B29907C0A0E7B2E0B6D0A5
:1004B400E7E0F0E00E94A207B39907C0A4E7B2E026
:1004C400ADD0E8E0F0E00E94A207989907C0A8E741
:1004D400B2E0A4D0EDE0F0E00E94A207A99A08954A
:1004E400AA24BB24E0E0E0937C02E0937D02E1E0F7
:1004F400F0E0AE16BF0654F526DFE4E1F0E0E815BF
:10050400F90519F10E948607F4010E947A0A0E94F3
:10051400CE0A84E00E94C4042896AEE7B2E07ED0FE
:100524000E94AB07F401A0917C02B0917D02EA0F16
:10053400FB1FE0937C02F0937D02AAE0B0E00E94EE
:10054400870AE0937C02F0937D02D1CFA0917C02D4
:10055400B0917D02EAE0F0E00E949F0A0895AA9318
:10056400EBB3EF70AE2FE881E07FEA2BEBBB8DE0BD
:100574008A95F1F7DA9A8DE08A95F1F7DA988DE0A9
:100584008A95F1F789C0AA93A881E9DFE881E29509
:10059400E883A881E4DF85E88A95F1F77DC0AA9312
:1005A400E881F0E0E257FD4FE081A981AE0FEBDF77
:1005B400E981E0939202E881E09393022296089500
:1005C400A2E00E94AF07ACE0DEDFA1E00E94AF072B
:1005D400E0E0E0939302E09392020895AA93A88145
:1005E400AA3031F0E0919402A0919202AE1760F02B
:1005F400E0E0EA93A0919302AF5FA0939302CFDF70
:10060400A881AA3009F448C0E0919202EF5FE09318
:100614009202D89AA881B7DFD8983EC0BA93AA9319
:100624001A93A981BA81ED91A983BA831E2FE03070
:1006340019F0A12FD3DFF5CF188123960895AA933B
:10064400EAB3E06FEABBD29AD09AD19ADA98D898F2
:10065400D998E881E0939402E058E0939002E8810D
:10066400E054E0939102A4E1B0E00E9463080E9488
:10067400B5070E94B5070E94B507A0E270DF88ECB9
:1006840090E00197F1F7A8E27EDFA4E07CDFA5E823
:100694007ADFA6E078DF94DF21960895BA93AA93CF
:1006A4001A930A93AA81BB8112960E94B20A3097C8
:1006B40059F1AA81BB8114960E94B20A8F01309726
:1006C40061F00230E0E01E0798F0F80131978F01E5
:1006D400AA81BB811496ED93FC93AA81BB811296E7
:1006E400ED91FD913196FE93EE933197AC81A08309
:1006F400AA81BB810E94B20AFF232AF0ED91FD91E9
:100704003196FE93EE9306C0AA81BB81EFEFFFEF13
:10071400ED93FC931981088125960895BA93AA93C1
:1007240026970E94F40A10E0AC85BD85E0E0F0E075
:10073400ED93FC93EA89FB893196EA8BFB8B319725
:10074400E4912E2FE03009F415C1E12FE03039F4A3
:10075400253211F411E002C00E94BD070AC1E13044
:10076400A9F4253219F40E94BD0702C112E040E049
:1007740000E02D3211F401E0FCC02B3211F44BE205
:10078400F8C0203211F440E2F4C002C0E23039F47F
:1007940050E013E0203311F40068EBC003C0E330F1
:1007A40009F0E7C0203310F02A3308F007C0AAE0AC
:1007B4005A9F502DE22FE0535E0FDBC0E22FE33649
:1007C40049F40E94C407E889F989A481AA930E9484
:1007D400CA07CEC0E33741F40E94C4070E94D00781
:1007E4000E9469071E2F0AC0E03761F40E94C40703
:1007F4000E94D0070E9475071E2F086002600F77C1
:1008040030E034C0E43611F0E93611F4046002C07B
:10081400E53731F4E4E5F0E0EE83FF8315E00CC046
:10082400E83511F4086003C0E83709F0A1C0EEE52B
:10083400F0E0EE83FF8314E002FF14C00E94C407BB
:100844000E94DA07AB85AA233AF4EA85FB850E9465
:100854006E0AEA87FB874DE2403011F01F5F01C04A
:100864000B7F04C00E94C4070E94DA0700FD11C078
:10087400151778F407FF08C002FF04C00B7F242F6C
:10088400115001C020E301C020E20E94BD07515075
:10089400EFCF312F01FF17C03030A1F003FF06C0A6
:1008A400EE81FF812591EE83FF8305C0AE81BF8178
:1008B4002D91AE83BF830E94BD07503009F0515083
:1008C4003150EACF4BC020E3EE81FF810E94BB0A86
:1008D400E887F987EE81FF813296EE83FF83E8850E
:1008E400F985AA85BB85AE17BF0750F02F5FA88591
:1008F400B985EA85FB85EA1BFB0BEA87FB87EFCF0B
:100904002A3328F003FF02C0295F01C0295D04FDDA
:100914001AC0213320F4A885B985119709F409C0B8
:10092400531710F000FF01C013C020E207FF0BC0F3
:1009340020E3006102FF07C00B7F4A930E94CA07AD
:10094400503009F051500E94BD07503009F0515009
:100954003150A885B985129708F0B5CF00FF08C0BB
:10096400503031F05150E0E2EA930E94CA07F8CFC8
:1009740010E0E0CEAC85BD850E94B20A0E94FB0A5D
:1009840064960895FF92F82E26970E94F60A0E9414
:10099400E207309719F4EFEFFFEF23C0DE0116965C
:1009A4000E946A0A8D010E94E207EE83FF83E0E061
:1009B400E887E987DE011A960E946A0A0E94B20A51
:1009C400FA93EA931A930A93E0E5F3E0FA93EA932D
:1009D400DE011A96A3DE9F01AE81BF81E0E0EC93B5
:1009E400F9010E94FD0A2A96FF9008950E94D30AF5
:1009F4007B816A81F981E88177FB770F67FD7160FC
:100A0400972F9E5781F078F0983190F4AA27BB274E
:100A1400882708948795B795A7959A95D1F7EA23DF
:100A2400FB23682305C0E8947727EE27FF27662772
:100A34006F77769508F4606877F9A991B9918991EF
:100A44009991EA17FB076807790797FB08950E94B5
:100A5400E9070E94F8040E94C90A19F40E94EE07EB
:100A640011C2E6F70E94EE070E94F1070BC20E9432
:100A7400D30A24971A930A930E94F8070E94E90A5A
:100A84001CF00E94FD0773C00E9402080E94CE0A57
:100A9400ADB7BEB711971F930F930E946D080F91C6
:100AA4001F910E9407080E94F807E3EFF4E065E352
:100AB4007FE30E94130A40F40E940C080E9430094C
:100AC4000E940708015010400E9402080E94F1078A
:100AD4007F936F93FF93EF930E940208A0E0B0E02E
:100AE40080E89FE30E943009AF91BF918F919F915D
:100AF4000E94CE090E9407080E940C080E940E085A
:100B0400A6E2B2E485E69FE30E948009DF01CB01FF
:100B1400EEE4F1E164E570E40E9415080E94F80730
:100B24000E9480097F936F93FF93EF930E941A08AA
:100B3400ADE4B1E184ED9FE30E942909AF91BF9137
:100B44008F919F910E94CE097F936F93FF93EF93B0
:100B5400F8010E949507A8E1B2E781E39FE30E94B0
:100B64008009AF91BF918F919F910E9430091981A3
:100B740008812A9608950E94E9070E94E90A1CF058
:100B84000E94FD077FC10E94C40A71DFA9EDBBE585
:100B94008EED9EE30E94800975C10E94D30A2897B6
:100BA4001A930A930E941F08E0E5FCEA6EEA72ECCD
:100BB4000E94130A18F40E94240881C0EA85FB8568
:100BC4006C857D850E94E50A29F4E0E0F0E060E8A8
:100BD4007FE375C00E941F08E8E1F2E761EB72E46D
:100BE4000E94130A09F008F405C0EFEFFFEF6FE766
:100BF4007FE765C00E941F08EBE3FAEA68EB7FE336
:100C04000E948009EA87FB876C877D870E941F0802
:100C14001EDF0E94BF088F010E941F080E949507D3
:100C24000E941508DF01CB010E9429080E941508C3
:100C34000E9407080E940C080E940E08ADE6BCE45E
:100C44008CE69DE30E948009A6EAB3EE86EE90E46A
:100C54000E9430090E94F8070E9480090E94070838
:100C64000E941A08A8E2BDE886EA91E40E943009CD
:100C7400EA83FB836C837D830E940208AA81BB8183
:100C84008C819D810E943009A3EFB4E085EB9FE342
:100C94000E9480097F936F93FF93EF930E94F8075C
:100CA4000E941A080E942909AF91BF918F919F91C8
:100CB4000E94CE090E94CE0AD8010E947E081981A2
:100CC40008812E9608950E94D30A24970E942E0824
:100CD4000E94E50A19F40E94240843C0A885B98536
:100CE4008A859B850E94E90A8CF40E9433080E943D
:100CF400E50A29F4E0E0F0E060E87FE332C0A8858B
:100D0400B9858A859B850E9438082BC00E943308C8
:100D1400DE010E94BF080E94B60A0E94EE070E94EC
:100D2400F608DF01CB010E9433080E94EF0A19F094
:100D34000E94240816C00E942E080E948A08DF011F
:100D4400CB010E943808E887F9876A877B87E881A6
:100D5400E17019F40E942E0804C00E942E080E941B
:100D64008A082C9608950E94D30A24971A9310E0B7
:100D74000E944108E3E8F9EF62E27EE30E94800901
:100D84000E94460864DE0E9441080E9415080E94E1
:100D940046080E9429080E94130A09F008F409C0B1
:100DA4000E944B08A0E0B0E080E09FE30E9450085E
:100DB40011E00E944108E0E0F0E060E87EE30E9478
:100DC400130A09F008F406C00E9441080E94290889
:100DD4000E945008103041F00E944B080E948A087B
:100DE400ED83FE836F8378870E944B080E9441083D
:100DF4000E948009E983FA836B837C83A1EBB4ECC2
:100E040086E292E40E948009DF01CB01EDE1F5EE78
:100E14006DE272E40E9415080E945708ACE4B3E541
:100E240084E091E40E9430090E9441080E948009F4
:100E34007F936F93FF93EF93E981FA816B817C81B8
:100E4400A1E1BDEE8EED9FE30E9430090E94570898
:100E5400AEE5BBE788EA9FE30E943009AF91BF91FA
:100E64008F919F910E94CE091881299608950E941E
:100E7400E907EBEDFFE069EC7FE30E942909DF015C
:100E8400CB0171DF249608950E94D30A24970E940F
:100E94005E08EDDF0E94C90A0E94E50A69F40E9417
:100EA4005E080E94E90A2CF4EFEFFFEF6FE77FE79B
:100EB4000CC00E94FD0709C00E945E0854DFDF01D8
:100EC400CB010E94EE070E94CE0928960895BA939A
:100ED400AA93A991B991EE27FF276D91662311F08A
:100EE4003196FBCF0895BA93AA93AA27BB27E99119
:100EF400F9910590002011F01196FBCFFD010895A2
:100F0400AA24BB240C947202EEE7F2E0FA93EA936B
:100F1400E0E7F0E0FA93EA930895F2010E947A0A76
:100F24000E94F60808950E947A0A0E94F60808951D
:100F3400DF01CB010C94CF05A2E0B0E00C94630870
:100F44006F01ACE2B1E00E946308E1E0F0E05F0110
:100F54000895ACE2B1E00C9463080E94C502A3E0DA
:100F6400B0E00C946308A0E30E94B10288EC90E026
:100F74000197F1F708952A93AD85BE85EF85F88929
:100F840009950895E889F9893497E88BF98B0895D0
:100F9400AD85BE85EF85F88909950895A889B98935
:100FA40014960E94B20AEE83FF83AE81BF81089536
:100FB400A889B98914960E94B20AEA87FB87089522
:100FC400DE011C960E946A0A0E94B20A08950E94D9
:100FD400D30A0E94C40A08950E94BF0A0895A0E09B
:100FE400B0E080E89FE30E9429090895AE81BF81A3
:100FF400888599850895EFEFFFEF6FE77FEF0895F8
:10100400EE81FF81688579850895EE83FF83688783
:1010140079870895F5DFEACF0E948009EA83FB838C
:101024006C837D8308950E94D80A0E94290908953B
:10103400EA81FB816C817D810895AA85BB858C85BD
:101044009D850895E0E0F0E060E070E00895E0E060
:10105400F0E060E07FE30895E885F9856A857B85A3
:101064000895EC81FD816E817F8108950E94390588
:10107400AC81BD818E819F810E94800959CFAD8151
:10108400BE818F8198850895ED83FE836F83788771
:10109400F6CFED81FE816F81788508950E9429093C
:1010A400ED83FE836F8378870895A981BA818B814C
:1010B4009C810E9480090895AC81BD818E819F81AD
:1010C4000895109639F080ED97E00197F1F7A8950F
:1010D4001197C9F70895E991F9916991799177FB8D
:1010E400660F771F88277E57880B7D938C937EE746
:1010F400769567956EF00895E991F99169917991E2
:1011040077FB660F771F7A0F769567950EF0089533
:1011140030976040704009F070580895552342F4A8
:10112400503811F4E0FF04C03196691F791F6BF049
:1011340050E8572711F45F93CFC05F3F31F0660F3B
:10114400000C57956795752F08955F9300200AF05A
:10115400CFC0C8C050E8192E1522880F991F9527B3
:10116400550F879550E8072E0522660F771F7527C0
:10117400550F67950895689401C0E8945F93F2DF72
:10118400703818F07F3F08F4A7C056E1571BAAF443
:10119400519558300EF4593030F0EFEFFFEF6FEF08
:1011A4007FE777F91AC077275523B9F0EE0FFF1FB1
:1011B400661F771F5A95D1F710C07727583028F04B
:1011C400EF2FF62F672F5850F9CF552331F076952E
:1011D4006795F795E7955A95D1F700200AF480D1E1
:1011E4005F910895689401C0E8943097604070401E
:1011F400B1F0002426F0772312F4009471D1172E55
:101204007EE1112032F07A95EE0FFF1F661F111C4C
:10121400F9CFEF2FF62F612D5F938ADF5F91089549
:101224004F93AF01FD01DA01AB01BC01CA01402DAE
:10123400012C142E4F910895EA0FFB1F681F089587
:10124400E095F0956095EF5FFF4F6F4F08955F93C2
:1012540081DF903871F150E8152604C05F937ADF7E
:10126400903839F1703821F1572F591B2BF112F4B2
:10127400D7DFFACF583118F0AA27BB278827583070
:1012840028F0AB2FB82F88275850F9CF552329F0D1
:101294008695B795A7955A95D9F7502D512572F093
:1012A400CBDF38F46795F795E795739513F420C071
:1012B400B7DF3EDF5F910895D8F7FBCFEA1BFB0B46
:1012C400680B51F010F40094BBDF662392F3EE0F29
:1012D400FF1F661F7A95CBF7EE27FF276627772730
:1012E4005F910895EFEFFFEF6FE77FEF5F91089550
:1012F400EFEFFFEF6FE77FE75F9108955F932ADFDA
:10130400703851F3903841F301240894791F23F481
:101314001CF300203AF3ECCF0F921F932F933F93CB
:101324004F93112722279927689FA0018F9F302D63
:10133400410D591F6B9F300D411D591F8E9F27D0A2
:10134400BF9F25D06A9F23D0BE9F1DD0AF9F1BD0C7
:10135400AE9F110D291F391F491F591FE32FF42F69
:10136400652F522F4F913F912F911F910F9066231C
:101374002AF0550FEE1FFF1F661F02C073954BF234
:10138400CDDE5F910895100D211D391F02C0200D7F
:10139400311D491F591F08955F93DCDE703821F415
:1013A40011200AF49FCFA4CF903809F495CF0124DB
:1013B4000894970B1BF4D4F30020F3CF792F1F93D9
:1013C4002F933F934F931124112722273327442728
:1013D400552790E2AE17BF078607410730F0AE1BD2
:1013E400BF0B860B410B089401C08894551F221F24
:1013F400331F111CAA1FBB1F881F441F9A9551F746
:10140400F901612D4F913F912F911F91662332F085
:10141400550FEE1FFF1F661F7A9543F27FDE5F9123
:10142400089599239AF0772342F0971748F029F406
:10143400AE17BF07860720F031F09894889408957A
:101444009894089408951894889408957723C2F77B
:10145400971798F3A9F7EA17FB07680788F399F336
:10146400ECCF9FD024975F939F81992311F4289602
:1014740033CF12F428963CCF4F9342E48E81BD8142
:10148400AC8188839983AA83BB83FD01BC01AC81B1
:10149400BD818E819F8180DF88819981AA81BB81F2
:1014A400DDDE60DE7A9544DE88819981AA81BB8184
:1014B400AE27A87F21F4BF178607970729F04A951E
:1014C40019F0DF01CB01DDCF4F915F91289608958C
:1014D4000024AF0DB01D0895F195E195F0400895F5
:1014E400F09560957095E195FF4F6F4F7F4F08958C
:1014F4006F2F660F660B762F0895FA9FF02DEB9FE2
:10150400F00DEA9FE02DF10D08951CD0F6DF0EF4E6
:10151400E3DF08950024112490E1AA0FBB1F001CEF
:10152400111C0E1A1F0A18F40E0E1F1E01C0A16012
:101534009A9599F7FD01D001089504D0EBDF0EF4DC
:10154400CBDF0895E894F7FF02C0C6DF6894B7FFC5
:1015540006C0A095B095119600F8039400FA08957A
:10156400ED91FC9111970895ED93FD936D937C9308
:1015740008950590F491E02D0895E881F9816A8138
:101584007B810895A881B9818A819B810895E8832C
:10159400F9836A837B8308957A936A93FA93EA932F
:1015A40008959A938A93BA93AA930895182E862F2E
:1015B400612D192E972F712D1B2EBF2FF12D1A2E51
:1015C400AE2FE12D089530976040704008950024B7
:1015D4000A160B06080609060895EA17FB076807AA
:1015E400790708955A934A933A932A931A930A933C
:1015F40008955D814C813B812A8119810881089578
:00000001FF
